:020000040800F2
:10000000480F00202D0200087D0A0008310A000870
:10001000790A0008FB080008E3130008000000004C
:10002000000000000000000000000000650C000857
:10003000FF08000800000000050B0008790D00080B
:10004000470200084702000847020008470200086C
:10005000470200084702000847020008470200085C
:10006000470200084702000847020008470200084C
:10007000470200084702000847020008470200083C
:10008000470200084702000847020008470200082C
:10009000470200084702000847020008470200081C
:1000A000470200084702000847020008470200080C
:1000B00047020008470200084702000847020008FC
:1000C00047020008470200084702000847020008EC
:1000D00047020008DD0F0008DD100008811100084C
:1000E00047020008470200084702000847020008CC
:1000F00047020008470200084702000847020008BC
:100100004702000847020008DD0D0008470200080A
:10011000470200084702000847020008470200089B
:10012000470200084702000847020008470200088B
:1001300000F002F800F06BF80AA090E8000C82448E
:100140008344AAF10107DA4501D100F060F8AFF26B
:10015000090EBAE80F0013F0010F18BFFB1A43F0A5
:1001600001031847F0290000102A00000A444FF04C
:10017000000C10F8013B13F0070408BF10F8014B06
:100180001D1108BF10F8015B641E05D010F8016B4B
:10019000641E01F8016BF9D113F0080F1EBF10F8AF
:1001A000014BAD1C0C1B09D16D1E58BF01F801CBD2
:1001B000FAD505E014F8016B01F8016B6D1EF9D555
:1001C0009142D6D37047000000230024002500266A
:1001D000103A28BF78C1FBD8520728BF30C148BFAA
:1001E0000B607047642900F0B380732900F05182DE
:1001F000002070471FB500F061FB040000200021C3
:1002000002F018F9401C60601FBD10B510BD00F071
:1002100030FB1146FFF7EEFF01F0DAFD00F060FB66
:1002200003B4FFF7F2FF03BC00F060FB094880470E
:1002300009480047FEE7FEE7FEE7FEE7FEE7FEE7C8
:10024000FEE7FEE7FEE7FEE704480549054A064BE0
:10025000704700007D0D00083101000848090020AA
:10026000480F0020480B0020480B00200FB41CB59D
:10027000074B06AA7B4469460090059800F0DFF919
:100280000020694600F0EEF91CBC5DF814FB00008C
:10029000ED0300002DE9F0410E46044600202062E7
:1002A0002046E168884730B3252805D0D4E90121EC
:1002B0009047206A401CF2E7E16820460027884703
:1002C000050018D0A5F14100192802D820354FF4B7
:1002D00000673246294620462760FFF783FF40B17A
:1002E000012804D0F61D26F007060836D8E7361D8B
:1002F000D6E72846DAE7206ABDE8F08170B50C46FB
:100300000546012A05D02878800600D5EA69002331
:1003100002E0012305E05B1C934202D2E05C00286E
:10032000F9D1A869E618C01AA861286A1844286299
:100330002846AFF3008004E0D5E9012114F8010B51
:100340009047B442F8D32846AFF3008070BD000058
:100350002DE9F0410646002410687529314616A59E
:1003600010D0AFF30080002802DA404213A507E066
:1003700031688A0701D512A502E0490704D511A505
:10038000012401E0AFF3008000210A2206F12407D6
:1003900009E0B0FBF2FCB0FBF2F302FB1C003030D2
:1003A00078541846491C0028F3D123462A46304683
:1003B000BDE8F04100F0E4B8000000002D000000AE
:1003C0002B0000002000000070B5064600F0D4F8B5
:1003D0000468054630460A22002100F05EF92C60D0
:1003E00070BD10B5431C02E010F8011B71B181070C
:1003F000FAD14FF0013202C88C1A8C4314EAC211B0
:10040000F9D0C01A0A0603D0C01E10BDC01A10BD14
:100410000A0401D0801E10BD0902FCD0401E10BD90
:10042000032A40F2308010F0030C00F0158011F820
:10043000013BBCF1020F624498BF11F801CB00F8F8
:10044000013B38BF11F8013BA2F1040298BF00F84C
:1004500001CB38BF00F8013B11F0030300F05581D8
:10046000083AC0F0088051F8043B083A51F804CB30
:10047000A0E80810F5E7121D5CBF51F8043B40F8F6
:10048000043BAFF30080D20724BF11F8013B11F801
:1004900001CB48BF11F8012B24BF00F8013B00F845
:1004A00001CB48BF00F8012B70474FF00002042930
:1004B000C0F0128010F0030C00F05B81CCF1040C52
:1004C000BCF1020F18BF00F8012BA8BF20F8022BC7
:1004D000A1EB0C0100F04DB95FEAC17C24BF00F82C
:1004E000012B00F8012B48BF00F8012B70470000DA
:1004F0004FF0013C50F8042B51F8043B9A4221D1B3
:10050000A2EB0C03934313EACC1317D150F8042B3E
:1005100051F8043B9A4215D1A2EB0C03934313EA22
:10052000CC130BD150F8042B51F8043B9A4209D15B
:10053000A2EB0C03934313EACC13DBD04FF0000083
:10054000704700BFD01A01BAB1FA81F101F0180169
:1005500022FA01F0CB40C1F12001DBB2C0B2C01AD7
:100560002CFA01F3D11A914311EAC311E6D1704775
:10057000704770477047000000487047E808002047
:100580002DE9F0470D4699469246044600F12408AD
:100590000168880604D5E06921F01001216000E0BF
:1005A0000120A84201DD471B00E00027A1697A195C
:1005B00002EB0900081AA0612078C00602D4204688
:1005C000AFF30080002608E0D4E901211AF8060004
:1005D0009047206A401C761C20624E45F4DB207850
:1005E000C0060AD52046AFF3008006E0D4E9012119
:1005F00030209047206A401C2062381EA7F1010776
:10060000F4DC07E0D4E9012118F805009047206ADE
:10061000401C2062281EA5F10105F3DC2046AFF343
:1006200000802078000602D50220BDE8F087012076
:10063000FBE7000001694A1C02610878704700B5B9
:100640008FB0CDE901310021059105497944CDE90B
:10065000031011466846FFF71DFE0FB000BD0000F5
:10066000E5FFFFFF0A6802F8010B0A60704710B54A
:10067000436913B1AFF3008001E0FFF73FFE0120B3
:1006800010BD127800F124010A7000224A70012284
:10069000EDE711684FF0FF32E9E72DE9F0479146A9
:1006A0000F4680460446002614F8015B2DB100F089
:1006B00089F80068405DC007F6D12B2D02D02D2DA2
:1006C00018D0641E4A463946204600F083F827B108
:1006D0003968A14201D1C7F800804FF002047105CA
:1006E0000BD54042002803DDFFF746FF0460A0075A
:1006F000BDE8F08746F48066E4E70028F8DAFFF703
:100700003BFF04606FF00040F2E710B5203AC0F004
:100710000B80B1E81850203AA0E81850B1E8185002
:10072000A0E81850BFF4F5AF5FEA027C24BFB1E83F
:100730001850A0E8185044BF18C918C0BDE81040B0
:100740005FEA827C24BF51F8043B40F8043B08BFB9
:100750007047D20728BF31F8023B48BF11F8012B80
:1007600028BF20F8023B48BF00F8012B70474FF02C
:10077000000200B5134694469646203922BFA0E8F1
:100780000C50A0E80C50B1F12001BFF4F7AF0907FD
:1007900028BFA0E80C5048BF0CC05DF804EB8900EE
:1007A00028BF40F8042B08BF704748BF20F8022B31
:1007B00011F0804F18BF00F8012B704700487047B8
:1007C000E808002010B500F079F8001D10BD00BF4A
:1007D000651C00002DE9F05F824615468B46002718
:1007E0000AF10104B9460078302801D09DB113E028
:1007F00014F8010B0127782803D0582801D045B1FF
:100800000AE00DB1102D07D1002714F8010B1025B7
:1008100002E0082500E00A250026B0460EE005FBB0
:10082000080005FB06F101271FFA80F801EB1046CE
:10083000B6F5803F00D3B94614F8010B294600F005
:1008400041F80028EBDABBF1000F05D00FB1641EB0
:1008500000E05446CBF80040B9F1000F06D0FFF796
:100860008BFE02210160C81EBDE8F09F48EA0640E9
:10087000FAE77546FFF7A2FFAE4605006946534604
:1008800020F00700854618B020B5FFF7DDFCBDE875
:1008900020404FF000064FF000074FF000084FF0E7
:1008A000000B21F00701AC46ACE8C009ACE8C00978
:1008B000ACE8C009ACE8C0098D46704700487047F5
:1008C000080900203A2800D2303820F02002412ABE
:1008D00001D3A2F13700884201D34FF0FF307047B7
:1008E0000446AFF300802046FFF79AFC0149182028
:1008F000ABBEFEE726000200704700BFFEE7704770
:100900002DE9F041024600250026002000230024A6
:10091000002791F803C00CF00F0591F803C00CF00C
:10092000100CBCF1000F03D091F802C04CEA050591
:1009300091F800C0BCF1000F31D0146800202BE00A
:100940004FF0010C0CFA00F3B1F800C00CEA0306FA
:100950009E4220D183004FF00F0C0CFA03F7BC43EA
:1009600005FA03FC4CEA040491F803C0BCF1280F1B
:1009700006D14FF0010C0CFA00FCC2F814C00AE0DA
:1009800091F803C0BCF1480F05D14FF0010C0CFAEF
:1009900000FCC2F810C0401C0828D1D31460B1F884
:1009A00000C0BCF1FF0F34DD546800202EE000F1E0
:1009B000080C4FF0010808FA0CF3B1F800C00CEA7B
:1009C00003069E4221D183004FF00F0C0CFA03F76F
:1009D000BC4305FA03FC4CEA040491F803C0BCF1E3
:1009E000280F05D100F1080C08FA0CF8C2F81480A1
:1009F00091F803C0BCF1480F07D100F1080C4FF08B
:100A0000010808FA0CF8C2F81080401C0828CED360
:100A10005460BDE8F0810246002093680B400BB1A2
:100A2000012000E00020704741617047016170477C
:100A300000BFFEE74CF6CC4001490860704700005B
:100A4000003000404AF6AA200149086070470000C3
:100A5000003000400149486070470000003000400D
:100A6000014988607047000000300040014908607B
:100A7000704700000030004000BFFEE770470000F4
:100A800070B5002100230F22C47804B3154C2468EC
:100A900004F4E064C4F5E064210AC1F10403CA402F
:100AA000447804FA03F184781440214309010E4C80
:100AB0000678A155047804F01F050124AC400578A0
:100AC0006D11AD0005F1E025C5F8004109E004789D
:100AD00004F01F050124AC40044D0678761145F85A
:100AE000264070BD0CED00E000E400E080E100E095
:100AF00002490143024A1160704700000000FA05F4
:100B00000CED00E07047000029B1064AD2690243AB
:100B1000044BDA6104E0034AD2698243014BDA6193
:100B2000704700000010024029B1064A9269024352
:100B3000044B9A6104E0034A92698243014B9A6133
:100B4000704700000010024030B500210022002450
:100B500000232D4D6D6805F00C0121B1042905D04D
:100B6000082923D105E0294D056022E0274D0560C5
:100B70001FE0254D6D6805F47012234D6D6805F476
:100B80008034022505EB92421CB9214D5543056086
:100B90000BE01D4D6D6805F400351DB11C4D55432E
:100BA000056002E0194D5543056002E0174D0560F0
:100BB00000BF00BF144D6D6805F0F0010909154D27
:100BC0006B5C0568DD4045600F4D6D6805F4E061C4
:100BD000090A104D6B5C4568DD4085600A4D6D6803
:100BE00005F46051C90A0B4D6B5C4568DD40C5607A
:100BF000054D6D6805F44041890B074D6B5CC56878
:100C0000B5FBF3F5056130BD0010024000127A001B
:100C100000093D00180000202800002010B5014602
:100C20000022002300204A11012A02D1094C236826
:100C300006E0022A02D1074C236A01E0054C636AF0
:100C400001F01F02012494401C400CB1012000E07F
:100C5000002010BD001002400149086070470000EC
:100C600080044242704710B500F002F810BD000049
:100C70000CB50020019000903348006840F48030AB
:100C80003149086000BF3048006800F4003000902F
:100C90000198401C0190009818B90198B0F5A06F18
:100CA000F1D12948006800F4003010B10120009013
:100CB00001E0002000900098012843D123480068FB
:100CC00040F01000214908600846006820F0030049
:100CD00008600846006840F0020008601A48406852
:100CE000194948600846406848600846406840F432
:100CF000806048600846406820F47C1048600846E0
:100D0000406840F4E81048600846006840F0807091
:100D1000086000BF0C48006800F000700028F9D09F
:100D20000948406820F003000749486008464068C9
:100D300040F00200486000BF0348406800F00C002B
:100D40000828F9D10CBD000000100240002002402C
:100D5000042808D14FF0E021096941F004014FF067
:100D6000E022116107E04FF0E021096921F0040160
:100D70004FF0E022116170477047000010B5134832
:100D8000006840F0010011490860084640681049B9
:100D900008400E494860084600680E4908400B4963
:100DA00008600846006820F4802008600846406813
:100DB00020F4FE0048604FF41F008860FFF753FFE7
:100DC0004FF000600449086010BD000000100240B0
:100DD0000000FFF8FFFFF6FE08ED00E010B501216E
:100DE000074800F02CF850B10648007820F00100C8
:100DF000401C044908700121014800F011F810BDA1
:100E0000000C00404000002021B1028842F0800226
:100E1000028004E002884FF67F731A400280704718
:100E2000CA430282704721B1028842F00102028067
:100E300004E002884FF6FE731A400280704730B516
:100E40000246002000230024158A05EA0103958943
:100E500005EA010413B10CB1012000E0002030BD0F
:100E60001AB183890B43838102E083898B43838199
:100E70007047000070B5002400220023058C4FF657
:100E8000EF7635400584028C8388048B48F6FF7525
:100E90002C404FF6FF452C400D884FF6FF7606EAB2
:100EA00005252C434FF6DF752A400D8906EA051506
:100EB0002A434D8806EA05152A43154DA84202D05B
:100EC000144DA8421DD14FF67F752A404D894FF62B
:100ED000FF7606EA05152A434FF6BF752A408D882E
:100EE00006EA05152A434FF6FF352B404FF2FF75F2
:100EF0002B408D8906EA85052B43CD8906EA8505B9
:100F00002B4383800483CD880587028470BD000055
:100F1000002C0140003401400A460021018B4FF2B1
:100F2000FF7319404FF6FF7303EA0223194301834D
:100F30007047018770470000002202881D4B9842CD
:100F40000ED01D4B98420BD0B0F1804F08D01B4BF8
:100F5000984205D01A4B984202D01A4B984204D1BD
:100F60004FF68F731A404B881A43174B984207D09D
:100F7000164B984204D04FF6FF431A40CB881A43D1
:100F800002808B8883850B8803850A4B98420BD09F
:100F9000094B984208D00E4B984205D00D4B984211
:100FA00002D00D4B984201D10B7A03860123838234
:100FB00070470000002C0140003401400004004054
:100FC00000080040000C00400010004000140040E9
:100FD00000400140004401400048014010B540F28B
:100FE0002551384800F039F9002843D0354800F041
:100FF000EFF935490988C82291FBF2F302FB13117E
:10100000324A505430480088C82190FBF1F201FB6D
:1010100012002E49085C082822D12B48008802289B
:101020001ADB29480088C82190FBF1F201FB12006D
:10103000264900220A5424480088C82190FBF1F276
:1010400001FB1200401E214900220A541E4800885C
:10105000401E1D49088008E000201B49088004E06C
:1010600019480088401C1849088040F2255115484D
:1010700000F0D8F840F22771124800F0EEF800B303
:1010800013480088C82190FBF1F201FB12001149BE
:101090000C5C21460B4800F0A0F90D480088401C6C
:1010A0000B4908800C480088401E0988884208DAED
:1010B000002240F22771034800F0F9F800200449AB
:1010C000088010BD003801406400002000050020A9
:1010D0006C000020F40600206A00002010B540F2E9
:1010E0002551214800F0B9F8A8B11F4800F070F967
:1010F0001E490988642291FBF2F302FB13111C4A7A
:1011000050541A480088401C1849088040F2255164
:10111000154800F087F840F22771134800F09DF859
:1011200000B314480088642190FBF1F201FB120027
:1011300011490C5C21460C4800F04FF90D4800881D
:10114000401C0C4908800D480088401E09888842D0
:1011500008DA002240F22771034800F0A8F80020C6
:101160000449088010BD00000044004066000020D3
:10117000C805002074000020BC0700207200002079
:1011800010B540F22551214800F067F8A8B11F487A
:1011900000F01EF91E490988C82291FBF2F302FBF8
:1011A00013111C4A50541A480088401C18490880E2
:1011B00040F22551154800F035F840F227711348E8
:1011C00000F04BF800B314480088C82190FBF1F2FE
:1011D00001FB120011490C5C21460C4800F0FDF89F
:1011E0000D480088401C0C4908800D480088401EAE
:1011F0000988884208DA002240F22771034800F08B
:1012000056F800200449088010BD00000048004046
:10121000680000202C0600207C0000202008002010
:101220007A00002010B50022002340F66A14A14283
:1012300000D100BF0A1201249440A3B2DC43048011
:1012400010BD21B1828942F40052828104E082897A
:101250004DF6FF731A408281704770B50246002434
:1012600000230025002040F66A16B14200D100BFDD
:10127000C1F3421501F01F03012606FA03F3012D05
:1012800002D19689334006E0022D02D1168A3340FE
:1012900001E0968A33400C12012606FA04F41688FF
:1012A000344013B10CB1012000E0002070BDF0B556
:1012B0000346002400260025002040F66A17B942A4
:1012C00000D100BF1846C1F3421401F01F060127E8
:1012D00007FA06F5012C01D10C3004E0022C01D1F3
:1012E000103000E014301AB107682F43076002E0A5
:1012F0000768AF430760F0BD2DE9F04786B00546AB
:101300000E460024A24600BFA1460027B08900B1C6
:1013100000BF2F462C8A4CF6FF700440F08804432F
:101320002C82AC894EF6F3100440B0883189084312
:10133000718908430443AC81AC8A4FF6FF400440F6
:10134000B0890443AC8201A8FFF7FEFB1F48874227
:1013500002D1DDF810A001E0DDF80CA0A88900F4AE
:10136000004040B10AEBCA0000EB0A1031684900A6
:10137000B0FBF1F807E00AEBCA0000EB0A10316895
:101380008900B0FBF1F86420B8FBF0F004012009FB
:10139000642101FB1089A88900F4004040B132208B
:1013A00000EBC900B0FBF1F000F00700044308E0D7
:1013B000322000EB09106421B0FBF1F000F00F00C7
:1013C00004432C8106B0BDE8F087000000380140DE
:1013D00001468888C0F308007047C1F30802828084
:1013E000704700BFFEE7000070B58EB005460E46A0
:1013F0000024022E0AD128780D2807D168780A28FF
:1014000004D11CA000F0DEFB0EB070BD00240BE088
:10141000285D0D2802D0285D202800D106E0285D37
:1014200001A90855601CC4B2B442F1DB00BF002022
:1014300001A90855002416E004EB840000EBC40069
:10144000114A02EBC000011D01A8FFF751F840B995
:1014500004EB840101EBC4010B4A52F831008047D0
:10146000D2E7601CC4B20B2CE6D308A000F0AAFBA4
:1014700000BFC9E7636F6D6567656E6520636F6D5B
:101480006D616E643A00000080000020696E766134
:10149000696C6420636F6D6D616E640D0A000000FD
:1014A00010B50C480078C0F3800000B910BD0948A1
:1014B000007820F004000749087000F041FB30B1CB
:1014C000054801880548FFF78FFF00F02BF800BFA3
:1014D000ECE7000040000020640000200005002030
:1014E00000B5B5B008A00BA100221346CDE900213C
:1014F000029002220A4903A8FEF7B8FE03A800F0F2
:1015000061FB35B000BD000031313A32373A333239
:10151000000000004465632031352032303139004D
:10152000C42A000810B5044801880448FEF7BDFF2E
:1015300000200149088010BD640000200005002043
:1015400010B5054801880548FEF7AFFF00200249A5
:1015500008800349088010BD66000020C8050020EF
:101560007000002010B500210148FFF7E2FC10BD1B
:1015700000080040044800880A2800DA704700206C
:101580000149088000BFF9E74800002007480088AB
:101590000A2800DA704700200449088004480088BF
:1015A000401C0349088000BFF4E70000460000200B
:1015B00048000020134800880A2800DA70470020FD
:1015C000104908801048007820F00400001D0E49E2
:1015D00008700846007820F01000103008700846A7
:1015E000007820F00800083008700846007820F0E5
:1015F00040004030087005480088401C03490880BE
:1016000000BFDBE74400002040000020460000202F
:101610001648007800F0010000B9704713480078C0
:1016200020F001001149087011480088401C104941
:1016300008800E48007820F0200020300B49087008
:101640000B480088B0F5C87F0EDD002008490880EF
:1016500008480088401C074908800448007820F0AA
:101660000200801C0149087000BFD6E7400000203E
:1016700042000020440000207047000038B50024DC
:1016800001214FF4FE70FFF74FFA00BF1AE01E4829
:1016900030F81400ADF8000010208DF8030003208E
:1016A0008DF80200194951F824006946FFF728F91E
:1016B000154A32F81410154A52F82400FFF7B4F90D
:1016C000601CC4B2012CE2DB11484088ADF8000078
:1016D00004208DF8030003208DF802000D494868AE
:1016E0006946FFF70DF90A480088ADF80000482068
:1016F0008DF8030003208DF802000649086869464A
:10170000FFF7FEF838BD0000300000202C0000205C
:101710003C0000203400002010B50024254800784B
:10172000C0F3401000B910BD2248007820F020001E
:1017300020490870002439E01F48005D012833D19A
:10174000F4B91E48007830B9012000F061FE012094
:101750001A49087028E0002000F05AFE00201749BE
:10176000087017480068401C154908601548006853
:10177000401E0968884217D200200F49085513E01F
:1017800011480068401C10490860084600680F496D
:101790000968884208D9FFF7E5FE00200649085588
:1017A0000949086009490860601CC4B2022CC3DB07
:1017B00000BFB8E7400000204C0000205800002087
:1017C0005400002050000020600000205C00002039
:1017D00000B589B08020ADF8200018208DF82300D6
:1017E00003208DF8220008A92248FFF789F801217B
:1017F0000420FFF789F901210820FFF795F941F24C
:101800009310ADF818000020ADF81400ADF81A00E0
:10181000ADF8160005A91848FFF78EFB6020ADF85B
:1018200004000120ADF806000020ADF80A00ADF874
:101830000C0001A91048FFF71DFB08210E48FFF717
:101840006BFB01210C48FFF7DFFA01210A48FFF783
:10185000EAFA00210848FFF76CFB002000F0D8FDF1
:10186000002006490860064908700649086009B06A
:1018700000BD0000000C01400008004050000020A6
:10188000580000205400002010B5FFF7C1FEFFF7FC
:1018900091FEFFF77BFEFFF76DFE10BD1FB5012126
:1018A0000820FFF731F940F20770ADF8080000207A
:1018B000ADF80400ADF80A00ADF8060001A90E4825
:1018C000FFF73AFB012211460B48FFF7C9FA322015
:1018D0008DF8000000208DF8010003208DF8020033
:1018E00001208DF803006846FFF7CAF8012102487D
:1018F000FFF799FA1FBD0000000C004010B500F082
:1019000055FC10BD00B587B001218803FFF70CF925
:101910004FF40070ADF8180003208DF81A0018205D
:101920008DF81B0006A97248FEF7EAFF4FF48060AD
:10193000ADF8180004208DF81B0006A96C48FEF7CE
:10194000DFFF25208DF8040003208DF8050002201C
:101950008DF8060001208DF8070001A8FFF790F828
:101960004FF4E13002900020ADF80C00ADF80E000D
:10197000ADF81000ADF814000C20ADF8120002A96B
:101980005C48FFF7B9FC012240F225515948FFF7A6
:101990008EFC002240F227715648FFF788FC012197
:1019A0005448FFF74EFC01210420FFF7BDF8012148
:1019B0004804FFF7A9F80820ADF8180004208DF8B6
:1019C0001B0006A94A48FEF79BFF0420ADF818004B
:1019D00003208DF81A0018208DF81B0006A9444832
:1019E000FEF78EFF26208DF8040003208DF80500F9
:1019F00002208DF8060001208DF8070001A8FFF7EE
:101A00003FF84FF4E13002900020ADF80C00ADF843
:101A10000E00ADF81000ADF814000C20ADF8120067
:101A200002A93548FFF768FC012240F225513248EF
:101A3000FFF73DFC002240F227712F48FFF737FCEB
:101A400001212D48FFF7FDFB01210820FFF76CF86D
:101A500001218804FFF758F84FF40060ADF8180032
:101A600004208DF81B0006A92448FEF749FF4FF417
:101A70008060ADF8180003208DF81A0018208DF84A
:101A80001B0006A91D48FEF73BFF4FF4E130029012
:101A90000020ADF80C00ADF80E00ADF81000ADF868
:101AA00014000C20ADF8120002A91548FFF724FC21
:101AB000012240F225511248FFF7F9FB012110489D
:101AC000FFF7BFFB4FF4A060FFF712F827208DF857
:101AD000040003208DF8050002208DF80600012087
:101AE0008DF8070001A8FEF7CBFF07B000BD00008E
:101AF000000801400038014000440040000C014053
:101B00000048004010B5FEF79DFF10BD10B5012044
:101B1000FFF7A2F800BF6120FFF780F80028FAD095
:101B200045F25550FEF7A2FF4020FEF793FF40F22A
:101B3000E240FEF795FFFEF785FFFEF77BFF10BD45
:101B40000A48008808B90020704708480088801EAD
:101B50000749085C0D2807D104480088401E085C2E
:101B60000A2801D10120EFE70020EDE76400002002
:101B70000005002010B5FFF7C5FF0A2000F062F84D
:101B800010BD000070B505460C46C82C00DD70BDC8
:101B9000224629460748FEF743FC074804800020F8
:101BA00006490880012240F227710548FFF77FFBB4
:101BB00000BFECE7F40600206A0000206C00002063
:101BC0000038014070B504462046FEF70AFC85B295
:101BD00029462046FFF7D6FF70BD000010B502A0D1
:101BE000FFF7F0FF10BD00006B65792030206576AF
:101BF000656E742068617070656E64210D0A000066
:101C000010B56FF00400FFF7A3F80A4800680A490E
:101C1000B0FBF1F0094908700846007800EB40017C
:101C2000C1EBC0104FF6FF7101EAC0000449088003
:101C300010BD00000000002000127A0014000020F7
:101C4000160000200146114A12884A434FF0E02353
:101C50005A6100229A611A46126942F001021A6121
:101C600000BF4FF0E022106900F001021AB100F449
:101C70008032002AF5D04FF0E022126922F00102F2
:101C80004FF0E0231A6100229A617047160000208D
:101C900070B50446254604EBD5725210A4EB4202FF
:101CA000094B33F81210264604EBD6725210A4EBFF
:101CB0004202064B53F82200FEF7ADFE08B10120A8
:101CC00070BD0020FCE700003C0000203400002034
:101CD00010B50120FFF7DCFF18B104A0FFF772FF79
:101CE00002E006A0FFF76EFF10BD00000D0A207392
:101CF00077203D2031200D0A000000000D0A2073DE
:101D000077203D2030200D0A0000000010B50DA006
:101D1000FFF758FFFFF72EFF12A0FFF753FFFFF763
:101D200029FF18A0FFF74EFFFFF724FF1CA0FFF7C5
:101D300049FFFFF71FFF22A0FFF744FFFFF71AFF3D
:101D400010BD00000D0A0D0A0D0A2068656C702098
:101D5000636D64206C697374203E3E3E3E3E3E3EA1
:101D60000D0A0000203120206D616B655F7A687577
:101D7000617A695F706C75736520706C757365202E
:101D80000D0A0000203220206D616B655F706F735B
:101D90005F706C7573652070756C73650D0A00005B
:101DA000203320207365745F706F735F6D6F746F85
:101DB00072206469722070756C73650D0A000000F2
:101DC000203420206765745F7377200D0A000000BF
:101DD000FFF716FFFFF752FCFFF794FDFFF7F8FC43
:101DE000FFF794FEFFF75AFD00F072F9FFF778FB5A
:101DF0000DE0FFF749FDFFF73FFCFFF77FFDFFF721
:101E00008BFCFFF77FFE00F0E7F8FFF749FBF0E7F8
:101E1000F0B5A1B0002400260025002700BF09E08E
:101E20002348005D202803D11EA88455701CC6B22B
:101E3000601CC4B21F4800888442F1DB012E04D02C
:101E40001DA0FFF7BFFE21B0F0BD9DF87800401C3B
:101E5000C4B213E01648005D19A9485519A8405DA1
:101E6000302803DB19A8405D392803DD12A0FFF7F5
:101E7000A9FEE8E7681CC5B2601CC4B20D48008822
:101E8000801EA042E6DC002019A9485519A8FEF7DB
:101E90009BFA87B23946012000F0A8F93A460AA118
:101EA0006846FEF7E3F96846FFF78CFE00BFCAE715
:101EB0000005002064000020636F6D6D616E64207A
:101EC0006572726F720D0A0073657420706F7320F3
:101ED000706C7573657320202564202073756363AF
:101EE0006573730D0A000000F0B5A1B00024002650
:101EF0000025002700BF09E02348005D202803D10A
:101F00001EA88455701CC6B2601CC4B21F4800884D
:101F10008442F1DB012E04D01DA0FFF753FE21B057
:101F2000F0BD9DF87800401CC4B213E01648005D77
:101F300019A9485519A8405D302803DB19A8405D50
:101F4000392803DD12A0FFF73DFEE8E7681CC5B2A3
:101F5000601CC4B20D480088801EA042E6DC002050
:101F600019A9485519A8FEF72FFA87B2394600205B
:101F700000F03CF93A460AA16846FEF777F9684650
:101F8000FFF720FE00BFCAE7000500206400002024
:101F9000636F6D6D616E64206572726F720D0A0001
:101FA000736574207A6875617A6920706C757365E1
:101FB00073202025642020737563636573730D0A95
:101FC0000000000010B540F6C9010248FEF7B1FF5D
:101FD00010BD00000008004070B5002438480078AB
:101FE000C0F3801000B970BD3548007820F0400083
:101FF0003349087000245EE03248005D90B93248F1
:10200000005D00284AD1062094FBF0F100FB11404E
:10201000C5B22846FFF73CFEF0B32C4951F8240026
:1020200080473BE02748005D012812D12648005D2B
:10203000012833D1062094FBF0F100FB1140C5B21A
:102040002846FFF725FE38BB204951F82400804779
:1020500024E01D48005D01280DD1062094FBF0F11D
:1020600000FB1140C5B22846FFF712FE18B9174908
:1020700051F8240080471448005D68B9062094FB9D
:10208000F0F100FB1140C5B22846FFF701FE18B180
:102090000E4951F8240000E000E08047062094FB40
:1020A000F0F100FB1140C5B22846FFF7F1FD0649EB
:1020B0000855601CC4B2012C9EDB00BF93E70000F2
:1020C00040000020FC040020FD040020F804002053
:1020D00070B5002400BF0CE0062094FBF0F100FB7B
:1020E0001140C5B22846FFF7D3FD03490855601CCF
:1020F000C4B2012CF0DB70BDFD040020174800883D
:1021000008B90020704716480078C0F3C00008B92D
:102110000020F7E71248007820F008001049087006
:102120000E4800880F490988884208D000200E49CF
:1021300008800A4800880B4908800020E2E70A4826
:102140000088401C0849088008460088142803DDE0
:10215000002008800120D5E70020D3E7660000209A
:10216000400000206E0000207000002070B5054681
:102170000C46642C00DD70BD224629460748FEF758
:102180004FF907480480002006490880012240F2E8
:1021900027710548FFF78BF800BFECE7BC0700206C
:1021A00072000020740000200044004010B5FFF7CA
:1021B000A5FF30B1034801880348FFF7D7FFFFF7B9
:1021C000BFF910BD66000020C805002070B50446A8
:1021D0000D461CB1012000F009F902E0002000F0DA
:1021E00005F92946012000F001F870BD2DE9F05FE6
:1021F000044689464FF0000A64B91B48C0F80090B5
:1022000000201A4908600120194908550020194981
:10221000087026E0FFF7A6F9484600F0F5FB834674
:1022200000F0A6FB07460022134B00F04BF90546D1
:1022300000F016F98246504600F09AFB054600224F
:102240000E4B00F097FA074600F00AF98246504616
:1022500000F0BAFB0A490860012005490855FFF75C
:10226000B1FEBDE8F09F00005000002054000020A7
:102270004C000020580000200040CF400000794072
:102280005C0000202DE9F041A6B0002400270025C5
:102290000026A04600BF09E03C48005D202803D18D
:1022A00023A8C455781CC7B2601CC4B23848008843
:1022B0008442F1DB022F05D036A0FFF783FC26B065
:1022C000BDE8F0819DF88C00401CC4B213E02F489B
:1022D000005D1EA948551EA8405D302803DB1EA8DE
:1022E000405D392803DD2BA0FFF76CFCE7E7681C95
:1022F000C5B2601CC4B29DF88D00A042E7DC00208E
:102300001EA9485500259DF88D00401CC4B213E05D
:102310001E48005D19A9485519A8405D302803DB07
:1023200019A8405D392803DD1AA0FFF74BFCC6E76A
:10233000681CC5B2601CC4B215480088801EA0424B
:10234000E6DC002019A948551EA8FEF73DF886B224
:1023500019A8FEF739F81FFA80F8012E03DD11A045
:10236000FFF730FCABE70EB1012100E00021084689
:102370004146FFF72BFF4346324612A16846FDF760
:1023800075FF6846FFF71EFC00BF98E700050020B8
:1023900064000020636F6D6D616E64206572726F02
:1023A000720D0A0064697220707261206572726F2A
:1023B00072202C706C6561736520696E7075742075
:1023C000302F310073657420706F73206D6F746FE0
:1023D000722064697220256420706C7573652025F5
:1023E0006420737563636573730D0A0010B504464A
:1023F0002CB14FF480510548FEF718FB04E04FF470
:1024000080510248FEF710FB10BD00000020014083
:1024100010B504462CB14FF400710548FEF706FBD9
:1024200004E04FF400710248FEF7FEFA10BD000010
:10243000000C014010B500290AD00878002807D008
:1024400005487844FEF754F8002801D0002010BD5C
:102450000248784410BD0000320700002A0700003F
:1024600021F00042A2F16052B2F5801F01F000435A
:1024700028BFD2F17F6C0BD95FEA001C43EAC2028D
:1024800042EB507018BF704728BF20F00100704722
:10249000B2F5801FBCBF184670474FEA410C1CF5CF
:1024A000001F02D2084600F008BB70B500F00CFA1D
:1024B00000000089FFF7F6BF4FF00040A0F5800054
:1024C000704700002DE9C04130B4DFF8A0C23CEAFB
:1024D000111418BF3CEA131400F0EC8081EA0305E4
:1024E0001CEA111444EAD57418BF1CEA131500F055
:1024F000C780A4EB05044FF0004545EAC12145EA39
:10250000C32341EA505143EA525304F17F74994284
:1025100004F500344FEAC0204FEAC22208BF9042BF
:1025200000F09C804FEA13650FF24016765D4FEA8B
:10253000134506FB05F7C7F1807706FB07F74FEA5F
:10254000D737A7FB03687642C8F58038A7FB06CECD
:1025500038BFA8F1010807FB08E64FF0000EA6FB04
:10256000028CE6FB03CEDCF1000CCEF1004E38BF4E
:10257000AEF1010EA6FB0C584FF000074FF000051E
:10258000E6FB0E87A1FB08C6A0FB07CE16EB0E06E6
:1025900045F10005E1FB076515F1E04E7EBFA4F5AE
:1025A00080345FEA46066D4116F1800745F100056B
:1025B0004FEA17274FEA066647EA0567A6F1DE46A7
:1025C000B6F1805F4FEA15251FD9384624F0010C7B
:1025D00005EBC471BCF1FE6F01EB0C1102D8F0BC2D
:1025E000BDE8008124425CBF01F5801E9EEAC47FE5
:1025F00002D4F0BCBDE80081244238D4F0BCA1F183
:10260000C041BDE8004100F0ADB94FEAD22242EA34
:1026100043524FEAD323A7FB02864FEAD02040EA79
:10262000415007FB03661EEA0E0F4FEAD12105FB5E
:10263000026658BFA6EB0056B6EB00564FEA520EA4
:102640004EEAC37E18EB0E0E56EB530EBDD518EBBB
:1026500002085E417F1C55F10005B6E74FF4801576
:102660004FF000074FF000064FF00008ADE7F0BC58
:102670004FF0000001F1C04101F00041BDE80081D0
:1026800011EA0C1F0CEA131500D00CE013EA0C1F22
:1026900000F025804FF00000F0BC81EA030101F05A
:1026A0000041BDE80081F0BCBDE8004181EA0301C2
:1026B00000F058B9F0BCBDE8004170B500F004F975
:1026C000097EFC3E00F007B881EA03014FF00000EC
:1026D00001F00041704781EA030100F043B9F0BC0A
:1026E000BDE800414FF0000021497047FFFDFBF9B4
:1026F000F7F5F4F2F0EEEDEBE9E8E6E4E3E1E0DE35
:10270000DDDBDAD8D7D5D4D3D1D0CFCDCCCBCAC8A6
:10271000C7C6C5C4C2C1C0BFBEBDBCBBBAB9B8B7CD
:10272000B6B5B4B3B2B1B0AFAEADACABAAA9A8A8C0
:10273000A7A6A5A4A3A3A2A1A09F9F9E9D9C9C9B8E
:102740009A99999897979695959493939291919039
:102750008F8F8E8E8D8C8C8B8B8A898988888787CA
:102760008685858484838382828181800000FF073F
:102770000000F87FDFF848C170B51CEA111E1EBFCB
:102780001CEA13159EEA0C0F95EA0C0F00F06F80FF
:1027900081EA030423EA4C134EEAD47E21EA4C1169
:1027A00041F4801143F48013AE44A1FB024CA0FB22
:1027B0000365AEF17F7E361955EB0C05A1FB034C8A
:1027C0004CF10003A0FB021C16EB0C06654153F113
:1027D0000003094218BF46F0010613F4007F0BD135
:1027E0004FEA03314FEA0530340341EA155140EA1C
:1027F00016506FF003020AE04FEAC3214FEAC520EA
:10280000F40241EA555140EA56506FF0020202EBE1
:102810002E4201EB025585EACE710AD05FEA440CE4
:1028200018BF24F0004450F1000041F1000120EAFB
:10283000D47040F2FE7C624500D270BDA84214BF45
:102840004FF080444FF04044002E08BF0024BEF1FA
:10285000806FA8BFA1F1C041BDE8704080F28280C6
:102860004FF0000001F1C04101F0004170479EEAC5
:102870000C0F0CEA131518BF95EA0C0F06D04FF099
:10288000000081EA030E0EF0004170BD00F01CF85C
:102890008900013E00F007B800F009B84FEA430C88
:1028A0005FEA5C5C08D081EA030100F05BB84FEAA4
:1028B000410C5FEA5C5CF6D14FF0000001497047C3
:1028C0000000FF070000F87F0EF1020E2EF0030E4D
:1028D0005EF8046B364205D4012A43EB030515F577
:1028E000001F12D8012841EB010C1CF5001F0CD869
:1028F0000ED14FEAD17C15F5001F0CEB4C0C0CF1FE
:10290000020C08BF4CEBD37C04E04FF0080C01E054
:102910004FEAD37C0CEB4C0526FA05F606F00706C9
:10292000B6F1040C06D20EEB860CBDE870404CF0FC
:10293000010C6047DFE80CF0090B02024FF0004188
:102940004FF00000A1F5002170BD19461046012886
:1029500051EB010418BFD4F5001484BF002001F02E
:10296000004170BD0808A0F500114FEA3101704721
:1029700043004FEAD30C4FEA3C0C43401FBF4007D3
:102980000CF1605113F0FE4F70471CF0006F03D143
:1029900000200CF0004170470CF0004343EA5070F7
:1029A00010B540EACC0000F042F800BF00000092F1
:1029B0004FEA0001FFF7D6BF4FF000414FF0000093
:1029C000A1F5002170470000C10DD1F19E0206DB88
:1029D0004FEA002343F0004323FA02F0704700421D
:1029E00007D54FEA4001B1F1FE4F02D24FF000008F
:1029F000704710B500F01BF8499224800020704702
:102A00006FEA200070470000B0FA80F310FA03F27A
:102A1000C3F19D030AD0D90501EB1220530638BF3C
:102A2000704700F1010008BF20F0010070470EF16F
:102A3000020E2EF0030E5EF8044B244204D44FEA3B
:102A40004102B2F17F4F11D84FEA4003B3F17F4FFB
:102A50000CD80ED14FEAD07CB2F17F4F0CEB4C0C6E
:102A60000CF1020C08BF4CEBD17C04E04FF0080CD9
:102A700001E04FEAD17C0CEB4C0324FA03F404F0A0
:102A80000704B4F1040C06D20EEB840CBDE8104030
:102A90004CF0010C6047DFE80CF0070802024FF031
:102AA0000040A0F5800010BD0846420018BFD2F1DA
:102AB000807288BF00F0004010BDFF2141EAD05075
:102AC000C00570470D0A57656C636F6D6520746FA4
:102AD00020636F6D6567656E65206465627567204C
:102AE000696E737472756374696F6E207379737431
:102AF000656D732E56657273696F6E2025642E2581
:102B0000642E2564205B6D616B655F74696D653A49
:102B100025735F25735D200D0A5479706520686503
:102B20006C702C3F2C636F70797269676874206FCA
:102B30007220617574686F7220666F72206D6F729B
:102B40006520696E666F726D6174696F6E2E0D0A15
:102B500000000000842C0008000000200005000098
:102B60006C010008182D000800050020480A00002C
:102B7000C80100081001000043000000F8FFFFFF3B
:102B80000040404040404040404041414141414080
:102B90004040404040404040404040404040404035
:102BA00040050202020202020202020202020202C4
:102BB00002202020202020202020200202020202C9
:102BC0000202909090909090101010101010101021
:102BD000101010101010101010101010020202022D
:102BE0000202888888888888080808080808080871
:102BF000080808080808080808080808020202026D
:102C00004000000000000000000000000000000084
:102C100000000000000000000000000000000000B4
:102C200000000000000000000000000000000000A4
:102C30000000000000000000000000000000000094
:102C40000000000000000000000000000000000084
:102C50000000000000000000000000000000000074
:102C60000000000000000000000000000000000064
:102C70000000000000000000000000000000000054
:102C8000000000001184A24A04A8090102030406FE
:102C90000708091069141502040608140C014032D3
:102CA0000229081A18042A100D013E130D1D066092
:102CB0000868656C70296802633F296805604845AB
:102CC0004C5013E91E081355086D616B655F7A68F7
:102CD00075617A695F706C757365680263316A113A
:102CE000D00C57706F73CD59680263321385223D43
:102CF00008736574CF0E596D6F746F726802633319
:102D000013D11C1B0867D00B607377680263341300
:082D1000DD1B33080100000087
:040000050800022DC0
:00000001FF
